:060000000A128A110E280D
:10000800FE00030EF0000A08F1007F08F2000A1251
:100018008A11952D0A128A1111280A128A11CB26E3
:100028000A128A11B2000A128A11CC260A128A11FF
:10003800B3000A128A11CD260A128A11B4000A12D4
:100048008A11CE260A128A11B5000A128A11CF2601
:100058000A128A11FA00AB01AC01AD01AE01AF0181
:10006800B001B101F801F90183010A128A110E2DBC
:1000780083120313A900053025062604031D45280D
:1000880046286628AE01B101B001AF01AD01AC014F
:10009800FF30A9008030F70022300A128A110626A4
:1000A8000A128A11C030F70032300A128A11062665
:1000B8000A128A11D030F70001300A128A11062676
:1000C8000A128A112A3083120313290603196D288C
:1000D8006E28C82823302906031973287428C828CD
:1000E800290A031978287928C8280130FF007F08D1
:1000F800AE0703302E0203188228832891280A307D
:10010800F30031080A128A1157260A128A1183123B
:1001180003132907B100AD01FB2803302E02031C8D
:1001280096289728AC2805302E0203189C289D286D
:10013800AC280A30F30030080A128A1157260A122E
:100148008A11831203132907B000AD01AD0AFB28F9
:1001580005302E02031CB128B228C72807302E020A
:100168000318B728B828C7280A30F3002F080A123E
:100178008A1157260A128A11831203132907AF001E
:100188000230AD00FB28FB282A302906031DCD28A4
:10019800CE28E9282D08031DD228D328D628B10156
:1001A800AE01FB282D03031DDA28DB28DF28B00168
:1001B8000230AE00FB2802302D06031DE428E52896
:1001C800C728AF010430AE00FB2823302906031DE1
:1001D800EE28EF28FB280A128A117F260A128A11B4
:1001E800043083120313B4000030B5001215013037
:1001F800FF007F08AB0710302B06031D04290529D3
:10020800C229AB012C0803190A290C2901300D2930
:100218000030AC00C630A4000A30F3000030F4000F
:100228002F08A700A8012708F5002808F6000A12D9
:100238008A11E7230A128A117308303E0A128A11BA
:100248006C260A128A11C73083120313A4000A30DD
:10025800F3000030F4002F08A700A8012708F500D4
:100268002808F6000A128A11B3240A128A117308A0
:10027800303E0A128A116C260A128A11C83083127B
:100288000313A4003A300A128A116C260A128A1142
:10029800C93083120313A4000A30F3000030F400BD
:1002A8003008A700A8012708F5002808F6000A1258
:1002B8008A11E7230A128A117308303E0A128A113A
:1002C8006C260A128A11CA3083120313A4000A305A
:1002D800F3000030F4003008A700A8012708F50053
:1002E8002808F6000A128A11B3240A128A11730820
:1002F800303E0A128A116C260A128A11CB308312F8
:100308000313A4003A300A128A116C260A128A11C1
:10031800CC3083120313A4000A30F3000030F40039
:100328003108A700A8012708F5002808F6000A12D6
:100338008A11E7230A128A117308303E0A128A11B9
:100348006C260A128A11CD3083120313A4000A30D6
:10035800F3000030F4003108A700A8012708F500D1
:100368002808F6000A128A11B3240A128A1173089F
:10037800303E0A128A116C260A128A11831203135C
:100388002C080319C829C929F629E329C630F7001A
:100398001F300A128A1106260A128A11C930F7007C
:1003A8001F300A128A1106260A128A11CC30F70069
:1003B8001F300A128A1106260A128A11F6292D08F8
:1003C800A700A8012808003A0319EB29F6292708ED
:1003D800003A0319DA29013A0319D229033A031911
:1003E800CA29F629080083120313881108158814EE
:1003F80008146430F3000030F400FF30F3070318EA
:10040800F40AFF30F4077408803AFF0080307F0256
:10041800031D102A013073020318132A142A012A13
:10042800831203130618192A1A2A1C2A0130B62A1D
:1004380086181F2A202A222A0230B62A0619252AB7
:10044800262A282A0330B62A881508118814081481
:100458006430F3000030F400FF30F3070318F40AA7
:10046800FF30F4077408803AFF0080307F02031DD4
:100478003F2A013073020318422A432A302A831282
:1004880003130618482A492A4B2A0430B62A861824
:100498004E2A4F2A512A0530B62A0619542A552AB7
:1004A800572A0630B62A88150815881008146430AB
:1004B800F3000030F400FF30F3070318F40AFF30AC
:1004C800F4077408803AFF0080307F02031D6E2A0B
:1004D800013073020318712A722A5F2A83120313E8
:1004E8000618772A782A7A2A0730B62A86187D2AA3
:1004F8007E2A802A0830B62A0619832A842A862A60
:100508000930B62A88150815881408106430F300D5
:100518000030F400FF30F3070318F40AFF30F40743
:100528007408803AFF0080307F02031D9D2A013045
:1005380073020318A02AA12A8E2A8312031306180D
:10054800A62AA72AA92A2A30B62A8618AC2AAD2AAA
:10055800AF2A0030B62A0619B22AB32AB52A2330A0
:10056800B62AFF300800C030F70032300A128A116C
:1005780006260A128A11C63083120313A4000A3011
:10058800F3000030F4002F08A500A6012508F500A7
:100598002608F6000A128A11E7230A128A1173083C
:1005A800303E0A128A116C260A128A11C730831249
:1005B8000313A4000A30F3000030F4002F08A5004C
:1005C800A6012508F5002608F6000A128A11B324A8
:1005D8000A128A117308303E0A128A116C260A120E
:1005E8008A11C83083120313A4003A300A128A1100
:1005F8006C260A128A11C93083120313A4000A3028
:10060800F3000030F4003008A500A6012508F50025
:100618002608F6000A128A11E7230A128A117308BB
:10062800303E0A128A116C260A128A11CA308312C5
:100638000313A4000A30F3000030F4003008A500CA
:10064800A6012508F5002608F6000A128A11B32427
:100658000A128A117308303E0A128A116C260A128D
:100668008A11CB3083120313A4003A300A128A117C
:100678006C260A128A11CC3083120313A4000A30A4
:10068800F3000030F4003108A500A6012508F500A4
:100698002608F6000A128A11E7230A128A1173083B
:1006A800303E0A128A116C260A128A11CD30831242
:1006B8000313A4000A30F3000030F4003108A50049
:1006C800A6012508F5002608F6000A128A11B324A7
:1006D8000A128A117308303E0A128A116C260A120D
:1006E8008A110800C33083120313A100CC30A00084
:1006F800A00B7C2BA10B7C2B0000F30133300A12DA
:100708008A11D0250A128A111B3083120313A10003
:100718009D30A000A00B8E2BA10B8E2B932BF301E9
:1007280033300A128A11D0250A128A11A530831291
:100738000313A000A00B9E2BA12BF30133300A1248
:100748008A11D0250A128A11A92BAA2B0000F301BD
:1007580002300A128A11D0250A128A11A530831292
:100768000313A000A00BB62BB92BF30128300A12F3
:100778008A11D0250A128A11A53083120313A0000A
:10078800A00BC42BC72BF30101300A128A11D02504
:100798000A128A11043083120313A1003D30A0000D
:1007A800A00BD42BA10BD42BF3010C300A128A1105
:1007B800D0250A128A11A53083120313A000A00BBA
:1007C800E32BE62B080083120313A101F41FED2B82
:1007D800EE2BF52BF309F409F30A0319F40AA10126
:1007E800A10AF61FF82BF92B022CF509F609F50AD0
:1007F8000319F60A0130FF007F08A106A201A30130
:10080800730874040319092C0A2C412CA001A00AAE
:10081800182C01300310F30DF40DFF3E031D0E2CB0
:100828000130FF007F08A007F41F1B2C1C2C0D2C87
:1008380001300310A20DA30DFF3E031D1D2C7408EB
:100848007602031D292C73087502031C2C2C2D2CF1
:10085800342C7308F5027408031CF603F6022214FC
:1008680001300310F40CF30CFF3E031D352C01304E
:10087800A002031D402C412C1C2C21080319452CD7
:10088800462C4B2CA209A309A20A0319A30A230880
:10089800F4002208F300080083120313A8012808B3
:1008A800803EA400FF300A128A116C260A128A11AF
:1008B800023083120313A7004530A600A930A50013
:1008C800A50B642CA60B642CA70B642C0130FF002D
:1008D8007F0883120313A80710302802031C752C05
:1008E800762C532CC030F70012300A128A110626D3
:1008F8000A128A1183120313A8012808D03EA40003
:10090800FF300A128A116C260A128A1102308312E9
:100918000313A7004530A600A930A500A50B922C0B
:10092800A60B922CA70B922C0130FF007F08831294
:100938000313A80710302802031CA32CA42C812C15
:10094800033083120313A7008A30A6005530A50090
:10095800A50BAC2CA60BAC2CA70BAC2C0800831257
:100968000313A101F61FB92CBA2CC12CF509F609FD
:10097800F50A0319F60AA101A10AF41FC42CC52C13
:10098800CA2CF309F409F30A0319F40A7308740466
:100998000319CF2CD02CFF2CA001A00ADE2C01308B
:1009A8000310F30DF40DFF3E031DD42C0130FF009E
:1009B8007F08A007F41FE12CE22CD32C74087602E0
:1009C800031DE82C73087502031CEB2CEC2CF22C8D
:1009D8007308F5027408031CF603F60201300310CD
:1009E800F40CF30CFF3E031DF32C0130A002031D91
:1009F800FE2CFF2CE22C21080319032D042D092DB0
:100A0800F509F609F50A0319F60A7608F4007508D7
:100A1800F30008000A128A1191260A128A1101307D
:100A28000A128A1134260A128A1183120313AA00A1
:100A3800452D0A128A1150240A128A110A128A11A3
:100A48007F260A128A11023083120313B400003081
:100A5800B500132D3308A6003208A5002A080A128B
:100A68008A113C200A128A11063083120313B2003D
:100A78000030B300132D0A128A11B7220A128A1104
:100A8800132D3508003A03194A2D132D3408013A5D
:100A980003191D2D033A03192E2D063A03193F2D6C
:100AA800132D0A128A110E2805308A000408840AB8
:100AB800820700342A343A3443344C3445344134C0
:100AC80052342034203423343A3445344E345434A8
:100AD8004534523400342034203420342034203437
:100AE8005434553452344E3420344F344E34203438
:100AF80020342034003453344534543420345434AE
:100B080049344D344534283448343A344D343A3431
:100B1800533429340034543449344D3445343A3448
:100B28000034831203138C1C9A2D9B2DC72D013082
:100B3800F8070318F90A0030F907E230780604309C
:100B480003197906031DA92DAA2DC62DF801F9014F
:100B58000130FF007F08B1073C303106031DB52D79
:100B6800B62DBB2D0130FF007F08B007B1013C3026
:100B78003006031DC02DC12DC62D0130FF007F0892
:100B8800AF07B0018C107208FF0071088A00700E60
:100B98008300FE0E7E0E0900F6007318D42DD82DA2
:100BA800831203130915DB2D831203130911760829
:100BB800F03988008914A630F400F40BE12D000008
:100BC80083120313891076080F39F40003300310D9
:100BD800F40DFF3E031DEB2D0310740D88008914DE
:100BE800A630F400F40BF62D0000831203138910CD
:100BF8001B30F5009E30F400F40B002EF50B002E90
:100C08000000080083120313A000F30177080A12FA
:100C18008A11D0250A128A11252EF301F30A200819
:100C280084000A128A1158250A128A110A128A1196
:100C3800D0250A128A110130FF007F08831203139E
:100C4800A00783120313200884000A128A1158256A
:100C58000A128A11003A031D322E332E112E080073
:100C6800F5000A128A11F7210A128A11F60075088E
:100C7800031D3F2E402E422E7608562E760A031963
:100C8800462E472E4E2E7A0803194B2E4C2E4E2EEA
:100C9800FA01402E760A031D522E532E552EFA01C4
:100CA800FA0AFF300800F500F401751C5C2E5D2E71
:100CB800612E7308FF007F08F4070310F30D03107B
:100CC800F50C7508031D692E6A2E592E7408080044
:100CD800F700F3018312031324080A128A11D0259E
:100CE8000A128A11F301F30A77080A128A11D02529
:100CF8000A128A110800F30101300A128A11D0255C
:100D08000A128A11043083120313A1003D30A00097
:100D1800A00B8C2EA10B8C2E08000A128A11C0265B
:100D28000A128A110A128A11A3260A128A110A12B1
:100D38008A11B3260A128A110B178B17080083161B
:100D480003130608073886000808F039880081135D
:100D580083120313881508158814081408008312D1
:100D6800031312149214FA308316031392008C148E
:100D78008312031312110800831603138801091143
:100D880089100A128A1176230A128A11080005347A
:080D9800003401340034013481
:02400E00FB3F76
:00000001FF
