:100000000A128A11FC2F00308A000408840A820731
:1000100000342034203420342034203454345534F7
:1000200052344E3420344F344E3420342034203473
:1000300000342034543469346D3465342D34203424
:0200400000348A
:100CF2000A128A1188260A128A1108008030F4002A
:100D020011300A128A11B5260A128A1108008316B6
:100D120003138801091189100A128A1199270A12EC
:100D22008A110800F00101300A128A110B270A12F7
:100D32008A110430F5003D30F400F40B9E2EF50BC1
:100D42009E2EA32E0800F500F00174080A128A11E3
:100D52000B270A128A11F001F00A75080A128A1189
:100D62000B270A128A110800F500F00174080A1212
:100D72008A110B270A128A11D02EF001F00A750887
:100D820084000A128A1103200A128A110A128A1195
:100D92000B270A128A110130FF007F08F507750838
:100DA20084000A128A1103200A128A11003A031DD2
:100DB200DB2EDC2EBE2E08000A128A1179260A12B8
:100DC2008A110130FA000030FB00FB2E0A128A1150
:100DD20041270A128A110A128A1193260A128A11CB
:100DE2000230FA000030FB00FB2E0A128A117F2625
:100DF2000A128A117B08003A0319002FFB2E7A0887
:100E0200013A0319E72E033A0319F62EFB2E0A12B2
:100E12008A110028F30070180F2F132F8312031367
:100E22000915162F8312031309117308F03988006C
:100E32008914A630F100F10B1C2F0000831203135A
:100E4200891073080F39F10003300310F10DFF3ED2
:100E5200031D262F0310710D88008914A630F1009E
:100E6200F10B312F00008312031389101B30F200A3
:100E72009E30F100F10B3B2FF20B3B2F00000800DC
:100E8200F9017908803EF400FF300A128A11A42683
:100E92000A128A110230F8004530F700A930F60034
:100EA200F60B512FF70B512FF80B512F582F013002
:100EB200FF007F08F90710307902031C612F622FAF
:100EC200422FC030F40001300A128A11B5260A12EC
:100ED2008A11F9017908D03EF400FF300A128A1112
:100EE200A4260A128A110230F8004530F700A93010
:100EF200F600F60B7A2FF70B7A2FF80B7A2F812F49
:100F02000130FF007F08F90710307902031C8A2F95
:100F12008B2F6B2F0330F8008A30F7005530F60024
:100F2200F60B912FF70B912FF80B912F982F0800AA
:100F3200C330F500CD30F400F40B9D2FF50B9D2F3F
:100F4200F00133300A128A110B270A128A111B3060
:100F5200F5009E30F400F40BAC2FF50BAC2F000023
:100F6200F00133300A128A110B270A128A11A630B5
:100F7200F400F40BBA2F0000F00133300A128A1188
:100F82000B270A128A11C52FC62F0000F00102306A
:100F92000A128A110B270A128A11A630F400F40BE6
:100FA200D02F0000F00128300A128A110B270A12F2
:100FB2008A11A630F400F40BDC2F0000F00101309E
:100FC2000A128A110B270A128A110430F5003D30E9
:100FD200F400F40BEA2FF50BEA2FEF2FF0010C309F
:100FE2000A128A110B270A128A11A630F400F40B96
:0E0FF200F82F0000080083010A128A11DD2E7C
:02400E00FB3F76
:00000001FF
